:1000000053C0FDC16CC06BC06AC069C068C067C026
:1000100066C065C064C063C062C061C060C05FC0CC
:100020005EC05DC05CC00403090418037300650072
:100030006D00610072006D0065002E0063006F00AE
:100040006D001603530065006D00610072006D00C5
:10005000650048004900440012011001000000083A
:100060000912DEBA000101020001090222000101A9
:100070000080320904000001030000000921010191
:100080000001221B000705810308000A06A0FF09E2
:1000900001A101150026FF007508950109008102E4
:1000A000950109009102C00011241FBECFE5D4E0E4
:1000B000DEBFCDBF10E0A0E6B0E0E2EEF7E002C0A8
:1000C00005900D92A236B107D9F710E0A2E6B0E094
:1000D00001C01D92AC39B107E1F757D380C390CF6F
:1000E00085B7826085BF8BB780648BBF8BE48093BC
:1000F00072008AE58093710008951F93CF93DF9378
:1001000040918200142F135017FDCAC080917F00C8
:10011000CCE0D0E0C81BD109CA57DF4F80917E00E8
:100120008F704150805FBE01B7D280917E008D32CA
:1001300009F0A3C0183009F0B1C083EC80936600C9
:100140008AE580936000109262008881807639F0A1
:10015000CE01F9D2282F8F3F09F47EC084C09A8146
:1001600010926F008981882321F41092700022E0A0
:100170006CC0853019F49093830066C0863009F016
:100180004FC08B81813041F488E590E090938100ED
:100190008093800022E140C0823041F48AE690E002
:1001A000909381008093800022E236C08330F9F47E
:1001B0008A81882341F486E290E0909381008093C5
:1001C000800024E029C0813041F48AE290E09093DD
:1001D00081008093800028E11FC08230E1F482E436
:1001E00090E0909381008093800026E115C08132D9
:1001F00041F48CE790E0909381008093800029E0A7
:100200000BC0823241F48CE890E09093810080939F
:1002100080002BE101C020E080E48093620023C0D5
:10022000883021F421E085E890E011C0893019F48C
:100230009093850009C08A3011F421E006C08B300C
:1002400019F48BE48093720020E08FE690E09093A5
:1002500081008093800007C0888187FD2E8180E81F
:100260008093620006C08F81882319F46E81621723
:1002700008F0622F6093610011C08091620087FFD7
:100280000DC0CE01612F2AD28F3F21F48EE18093E1
:10029000600004C0882311F0109261001092820067
:1002A0008091600084FF4EC0809161008F3F09F40F
:1002B00049C0182F893008F018E0811B8093610035
:1002C0008091660098E8892780936600112341F1A8
:1002D00020918000309181008091620086FF0DC0E6
:1002E000A7E6B0E080E090E0F901E80FF91FE491A3
:1002F000ED9301961817C1F708C0912FD901E7E6D1
:10030000F0E08D9181939150E1F71150812F90E0B1
:100310001F5F0196820F931F90938100809380004E
:1003200087E690E0612F67D0412F4C5F4C3019F089
:100330008FEF8093610040936000415080E266E659
:1003400070E0AAD194E180B38C7059F49150D9F740
:100350001092830010927D008FEF60E070E040E02B
:100360009BD1DF91CF911F9108951F93DC01162F30
:100370008091710084FF07C08091720098E88927FE
:100380008093720003C08AE580937100912FE3E7A8
:10039000F0E08D91819391501916DCF383E790E0A2
:1003A000612F29D01C5F61E770E010937100CB01D1
:1003B00023E0959587952A95E1F7837011508F5D1D
:1003C0006F5F7F4F412F68D11F910895A82FB92FDC
:1003D00080E090E041E050EA609530E009C02D9166
:1003E00082279795879510F084279527305EC8F36C
:1003F0006F5FA8F30895EADF8D939D930895CF93DF
:10040000CFB7CF93C395839BE9F7839B09C0839BA9
:1004100007C0839B05C0839B03C0839B01C0A3C00F
:10042000DF93C0917F00DD27CA57DF4F839B02C057
:10043000DF91EBCF2F930F931F9300B32FEF03FBAD
:1004400020F94F933F9310B34FEF012703FB21F99E
:100450003BE031C04E7F012F10B3216028C0102F28
:100460004D7F2260000000B329C04B7F2460012F24
:10047000000010B32BC010B3477F28602AC04F7E06
:1004800000B320612CC04F7D10B320622FC04F7B82
:1004900000B3206432C0422700B349934FEF0000FD
:1004A000102713FB20F910B31C70C9F1297F91F2BA
:1004B000012703FB21F900B3237F89F2315058F162
:1004C000102713FB22F910B3277E79F2012703FBD3
:1004D00023F92F7C81F200B3102713FB24F92F7925
:1004E00071F200C010B3012703FB25F92F7359F2F5
:1004F00000C000B3102713FB26F9223040F200C0E1
:1005000010B3012703FB27F9243028F64F77206822
:1005100010B30000F9CF10E41ABF002719C03B50F8
:100520003195C31BD04010E41ABF0881033CF9F099
:100530000B34E9F020917D001981110F1213EDCFDA
:100540004A81441F093641F10D3211F0013E29F76D
:10055000009384003F914F911F910F912F91DF9154
:10056000CAB7C6FD4FCFCF91CFBFCF91189520917D
:100570008400222379F310918200112369F534302D
:100580006AF13093820020937E0010917F003BE05F
:10059000311B30937F0022C0009182000130E4F4CF
:1005A0000AE54F7049F43091600034FD19C00093A2
:1005B0006000C6E6D0E018C03091710034FD10C074
:1005C00000937100C2E7D0E00FC02795A8F4515006
:1005D000A9F4220F0000F9CF4AE503C042ED01C0A3
:1005E000432FC4E1D0E032E011B31C60939A11BBF9
:1005F00002B320E41CE05F93012756E002BB27957D
:1006000020F4515021F4220FF9CF012756E00000C9
:100610003B5A02BBD0F2279528F4515029F4220FFF
:100620000000F9CF012756E0279502BB20F4515076
:1006300021F4220FF9CF012756E02991332302BB81
:1006400021F6037F10918300110FC651D04002BBE9
:1006500011F010937D0010E41ABF086011B3137FEE
:10066000402F437F5F9100C000C002BB11BB42BB63
:1006700071CF982F92959F709A3008F0995D5D9B8D
:10068000FECF905D9CB98F708A3008F0895D5D9BCC
:10069000FECF805D8CB908950F931F93CF93DF93A6
:1006A000EB01142FE6DF5D9BFECF8AE38CB900E2FD
:1006B00006C05D9BFECF0CB98991DBDF1150112381
:1006C000C1F75D9BFECF8DE08CB95D9BFECF8AE0CC
:1006D0008CB9DF91CF911F910F910895AC012091BA
:1006E000630030916400862F90E02817390708F4E2
:1006F000622FD901A61BB109B0936400A0936300D7
:10070000FA0190E019C085B3807C85BB82B38C7FF1
:1007100082BB808187FDA89A86FDA99A85FDAA9A49
:1007200084FDAB9A83FDAC9A82FDAD9A81FD919ACE
:1007300080FD909A9F5F3196961728F380E0AB2B4F
:1007400009F481E00895FC018181893011F080E095
:1007500008958681978190936400809363008FEF62
:1007600008958091710084FF0FC096B380B3990FF4
:10077000990F990F829586958770982B90936500B5
:1007800085E690E061E0F1DD089587B3807E87BB68
:1007900088B38F6188BBBD9AC59A84B38F6384BBCD
:1007A00081B38F7181BB82B3806E82BB81B3836062
:1007B00081BB88E10FB6F89481BD11BC0FBE90DCFF
:1007C0008B9A84EC99E02CE231E0F9013197F1F752
:1007D0000197D9F78B98789490DCC3DFFDCFF8941C
:0207E000FFCF49
:0207E2005AFFBC
:00000001FF
