:1000000053C0FDC16CC06BC06AC069C068C067C026
:1000100066C065C064C063C062C061C060C05FC0CC
:100020005EC05DC05CC00403090418037300650072
:100030006D00610072006D0065002E0063006F00AE
:100040006D001603530065006D00610072006D00C5
:10005000650048004900440012011001000000083A
:100060000912DEBA000101020001090222000101A9
:100070000080320904000001030000000921010191
:100080000001221B000705810308000A06A0FF09E2
:1000900001A101150026FF007508950109008102E4
:1000A000950109009102C00011241FBECFE5D4E0E4
:1000B000DEBFCDBF10E0A0E6B0E0E0EBF7E002C0AD
:1000C00005900D92A236B107D9F710E0A2E6B0E094
:1000D00001C01D92AC39B107E1F73ED367C390CFA1
:1000E00085B7826085BF8BB780648BBF8BE48093BC
:1000F00072008AE58093710008951F93CF93DF9378
:1001000040918200142F135017FDCAC080917F00C8
:10011000CCE0D0E0C81BD109CA57DF4F80917E00E8
:100120008F704150805FBE019ED280917E008D32E3
:1001300009F0A3C0183009F0B1C083EC80936600C9
:100140008AE580936000109262008881807639F0A1
:10015000CE01E0D2282F8F3F09F47EC084C09A815F
:1001600010926F008981882321F41092700022E0A0
:100170006CC0853019F49093830066C0863009F016
:100180004FC08B81813041F488E590E090938100ED
:100190008093800022E140C0823041F48AE690E002
:1001A000909381008093800022E236C08330F9F47E
:1001B0008A81882341F486E290E0909381008093C5
:1001C000800024E029C0813041F48AE290E09093DD
:1001D00081008093800028E11FC08230E1F482E436
:1001E00090E0909381008093800026E115C08132D9
:1001F00041F48CE790E0909381008093800029E0A7
:100200000BC0823241F48CE890E09093810080939F
:1002100080002BE101C020E080E48093620023C0D5
:10022000883021F421E085E890E011C0893019F48C
:100230009093850009C08A3011F421E006C08B300C
:1002400019F48BE48093720020E08FE690E09093A5
:1002500081008093800007C0888187FD2E8180E81F
:100260008093620006C08F81882319F46E81621723
:1002700008F0622F6093610011C08091620087FFD7
:100280000DC0CE01612F11D28F3F21F48EE18093FA
:10029000600004C0882311F0109261001092820067
:1002A0008091600084FF4EC0809161008F3F09F40F
:1002B00049C0182F893008F018E0811B8093610035
:1002C0008091660098E8892780936600112341F1A8
:1002D00020918000309181008091620086FF0DC0E6
:1002E000A7E6B0E080E090E0F901E80FF91FE491A3
:1002F000ED9301961817C1F708C0912FD901E7E6D1
:10030000F0E08D9181939150E1F71150812F90E0B1
:100310001F5F0196820F931F90938100809380004E
:1003200087E690E0612F67D0412F4C5F4C3019F089
:100330008FEF8093610040936000415080E266E659
:1003400070E091D194E180B38C7059F49150D9F759
:100350001092830010927D008FEF60E070E040E02B
:1003600082D1DF91CF911F9108951F93DC01162F49
:100370008091710084FF07C08091720098E88927FE
:100380008093720003C08AE580937100912FE3E7A8
:10039000F0E08D91819391501916DCF383E790E0A2
:1003A000612F29D01C5F61E770E010937100CB01D1
:1003B00023E0959587952A95E1F7837011508F5D1D
:1003C0006F5F7F4F412F4FD11F910895A82FB92FF5
:1003D00080E090E041E050EA609530E009C02D9166
:1003E00082279795879510F084279527305EC8F36C
:1003F0006F5FA8F30895EADF8D939D930895CF93DF
:10040000CFB7CF93DF93C395839BE9F7839B0BC053
:10041000839B09C0839B07C0839B05C0839B03C04C
:10042000839B01C08BC06F93C0917F00DD27CA57AB
:10043000DF4F2F9365E5839B03C02F916F91E6CF2C
:100440000F931F934F9320E040E15F9300B30C7034
:1004500003FB27F93F9350E03BE039C01C70406438
:100460002F77012F5F5F1EC0406810B31C702F777D
:1004700052501FC0406400B32F770C70D1F15F5F02
:1004800000C023C0406210B32F771C7091F15F5FF2
:1004900000C025C00C701027515012F45D5F0000A1
:1004A000115027952C3F10B3C8F61C70012701503E
:1004B00027952C3FC8F64227499300B30C701027AC
:1004C0004F73115027952C3FA8F64695469510B3CB
:1004D0001C7079F00127015027952C3F98F66B5A34
:1004E00060F3315000B3B0F600C010E41ABF00272B
:1004F00019C03B503195C31BD04010E41ABF08818E
:10050000033C09F10B34F9F020917D001981110FA2
:100510001213EDCF4A81441F093651F10D3211F00B
:10052000013E29F7009384003F915F914F911F9105
:100530000F912F916F91CAB7C6FD65CFDF91CF9113
:10054000CFBFCF91189520918400222369F3109199
:100550008200112391F5343092F130938200209380
:100560007E0010917F003BE0311B30937F0027C05D
:100570000091820001300CF50AE54F7049F430918A
:10058000600034FD1DC000936000C6E6D0E01CC0D2
:100590003091710034FD14C000937100C2E7D0E0C7
:1005A00013C0052710E000C0000002BB1AC00527D9
:1005B00010E0221F1DC010E021C04AE502C032ED4C
:1005C000432FC4E1D0E032E011B31C60939A02B330
:1005D00011BB5CE020E865E320FF052702BB2795FF
:1005E00017951C3FF0F66695B8F7B1F720FF052781
:1005F00002BB279517951C3FD0F62795179517FF37
:10060000052700001C3F02BBB0F629913A9519F767
:10061000037F10918300110FC651D04002BB11F02F
:1006200010937D0010E41ABF086011B3137F402FB0
:10063000437F54E05A95F1F702BB11BB42BB74CF24
:10064000982F92959F709A3008F0995D5D9BFECF30
:10065000905D9CB98F708A3008F0895D5D9BFECFFC
:10066000805D8CB908950F931F93CF93DF93EB01B7
:10067000142FE6DF5D9BFECF8AE38CB900E206C053
:100680005D9BFECF0CB98991DBDF11501123C1F7BF
:100690005D9BFECF8DE08CB95D9BFECF8AE08CB96F
:1006A000DF91CF911F910F910895AC0120916300CC
:1006B00030916400862F90E02817390708F4622FE4
:1006C000D901A61BB109B0936400A0936300FA019D
:1006D00090E019C085B3807C85BB82B38C7F82BBE0
:1006E000808187FDA89A86FDA99A85FDAA9A84FD36
:1006F000AB9A83FDAC9A82FDAD9A81FD919A80FD03
:10070000909A9F5F3196961728F380E0AB2B09F4FF
:1007100081E00895FC018181893011F080E0089525
:100720008681978190936400809363008FEF089592
:100730008091710084FF0FC096B380B3990F990F19
:10074000990F829586958770982B9093650085E622
:1007500090E061E00ADE089587B3807E87BB88B3AE
:100760008F6188BBBD9AC59A84B38F6384BB81B304
:100770008F7181BB82B3806E82BB81B3836081BB8A
:1007800088E10FB6F89481BD11BC0FBEA9DC8B9A2D
:1007900084EC99E020E931E0F9013197F1F7019714
:1007A000D9F78B987894A9DCC3DFFDCFF894FFCFFD
:0207B0005AFFEE
:00000001FF
