:1000000056C00AC26FC06EC06DC06CC06BC06AC003
:1000100069C068C067C066C065C064C063C062C0B4
:1000200061C060C05FC00403090418037300650069
:100030006D00610072006D0065002E0063006F00AE
:100040006D001603530065006D00610072006D00C5
:10005000650048004900440012011001000000083A
:10006000C016DF05000101020001090222000101A2
:100070000080320904000001030000000921010191
:1000800000012222000705810308000A06A0FF09DB
:1000900001A1010902150026FF00750895018102E2
:1000A0000903150026FF00750895019102C011246F
:1000B0001FBECFE5D4E0DEBFCDBF10E0A0E6B0E0CC
:1000C000E6E5F8E002C005900D92A236B107D9F737
:1000D00010E0A2E6B0E001C01D92AD3AB107E1F731
:1000E00099D3B7C38DCF85B7826085BF8BB7806446
:1000F0008BBF8BE4809383008AE580938200089510
:100100001F93DC01162F8091820084FF07C080912D
:10011000830098E889278093830003C08AE5809351
:100120008200912FE4E8F0E08D91819391501916AF
:10013000DCF384E890E0612F6BD11C5F62E870E033
:1001400010938200CB0123E0959587952A95E1F7DE
:10015000837011508F5D6F5F7F4F412FAAD21F9127
:1001600008951F93CF93DF9340919300142F135062
:1001700017FDC5C080919000CCE0D0E0C81BD1092C
:10018000C956DF4F80918F008F704150805FBE0154
:1001900090D280918F008D3209F09EC0183009F006
:1001A000ACC083EC809377008AE580936000109266
:1001B00062008881807639F0CE01F5D2282F8F3FFA
:1001C00009F479C07FC09A811092800089818823C8
:1001D00021F41092810022E067C0853019F49093D9
:1001E000940061C0863009F04AC08B81813041F4AF
:1001F00088E590E0909392008093910022E13BC0CB
:10020000823019F48AE690E02FC08330F9F48A81B5
:10021000882341F486E290E09093920080939100CD
:1002200024E029C0813041F48AE290E0909392006A
:100230008093910028E11FC08230E1F482E490E0D5
:10024000909392008093910026E115C0813241F491
:100250008CE790E0909392008093910029E00BC08E
:10026000823241F48CE890E0909392008093910068
:1002700022E201C020E080E48093620023C0883045
:1002800021F421E086E990E011C0893019F49093BF
:10029000960009C08A3011F421E006C08B3019F4B1
:1002A0008BE48093830020E080E890E090939200BC
:1002B0008093910007C0888187FD2E8180E880931C
:1002C000620006C08F81882319F46E81621708F0DE
:1002D000622F6093610011C08091620087FF0DC0A2
:1002E000CE01612F2BD28F3F21F48EE180936000ED
:1002F00004C0882311F01092610010929300809145
:10030000600084FF5DC0809161008F3F09F458C098
:10031000182F893008F018E0811B809361008091CC
:10032000770098E8892780937700112391F18091D5
:10033000620087FF08C088E790E0612FDCD1182FAA
:10034000893098F526C0209191003091920086FF67
:100350000DC0A8E7B0E080E090E0F901E80FF91FD8
:10036000E491ED9301961817C1F708C0912FD901B8
:10037000E8E7F0E08D9181939150E1F71150812FE2
:1003800090E01F5F0196820F931F909392008093DD
:10039000910088E790E0612F3BD0412F4C5F4C30BB
:1003A00041F08FEF8093610004C08FEF8093610074
:1003B0004EE140936000415080E267E770E079D100
:1003C00094E180B3847859F49150D9F71092940055
:1003D00010928E008FEF60E070E040E06AD1DF9114
:1003E000CF911F910895A82FB92F80E090E041E0B0
:1003F00050EA609530E009C02D9182279795879546
:1004000010F084279527305EC8F36F5FA8F3089536
:10041000EADF8D939D930895CF93CFB7CF93C39584
:10042000879BE9F7879B09C0879B07C0879B05C00F
:10043000879B03C0879B01C0A3C0DF93C09190003E
:10044000DD27C956DF4F879B02C0DF91EBCF2F938B
:100450000F931F9300B32FEF07FB20F94F933F93A8
:1004600010B34FEF012707FB21F93BE031C04E7F6E
:10047000012F10B3216028C0102F4D7F2260000093
:1004800000B329C04B7F2460012F000010B32BC0A4
:1004900010B3477F28602AC04F7E00B320612CC074
:1004A0004F7D10B320622FC04F7B00B3206432C059
:1004B000422700B349934FEF0000102717FB20F9A4
:1004C00010B31478C9F1297F91F2012707FB21F9B4
:1004D00000B3237F89F2315058F1102717FB22F91E
:1004E00010B3277E79F2012707FB23F92F7C81F2D5
:1004F00000B3102717FB24F92F7971F200C010B355
:10050000012707FB25F92F7359F200C000B310270C
:1005100017FB26F9223040F200C010B3012707FB79
:1005200027F9243028F64F77206810B30000F9CF60
:1005300010E41ABF002719C03B503195C31BD040AF
:1005400010E41ABF0881033CF9F00B34E9F0209164
:100550008E001981110F1213EDCF4A81441F093605
:1005600041F10D3211F0013E29F7009395003F91C2
:100570004F911F910F912F91DF91CAB7C6FD4FCFB9
:10058000CF91CFBFCF91189520919500222379F379
:1005900010919300112369F534306AF13093930080
:1005A00020938F00109190003BE0311B309390001E
:1005B00022C0009193000130E4F40AE54F7049F441
:1005C0003091600034FD19C000936000C7E7D0E0AF
:1005D00018C03091820034FD10C000938200C3E83F
:1005E000D0E00FC02795A8F45150A9F4220F0000C5
:1005F000F9CF4AE503C042ED01C0432FC4E1D0E08A
:1006000032E011B31468979A11BB02B320E414E8E6
:100610005F93012756E002BB279520F4515021F447
:10062000220FF9CF012756E000003B5A02BBD0F25F
:10063000279528F4515029F4220F0000F9CF012703
:1006400056E0279502BB20F4515021F4220FF9CF38
:10065000012756E02991332302BB21F60B77109135
:100660009400110FC651D04002BB11F010938E00C0
:1006700010E41ABF006811B31B77402F4B775F91CE
:1006800000C000C002BB11BB42BB71CF982F929536
:100690009F709A3008F0995D5D9BFECF905D9CB98C
:1006A0008F708A3008F0895D5D9BFECF805D8CB9CC
:1006B00008950F931F93CF93DF93EB01142FE6DF81
:1006C0005D9BFECF8AE38CB900E206C05D9BFECF46
:1006D0000CB98991DBDF11501123C1F75D9BFECF6F
:1006E0008DE08CB95D9BFECF8AE08CB9DF91CF9114
:1006F0001F910F910895782FE92F20916300309179
:100700006400862F90E02817390708F4622FA901AA
:10071000461B51095093640040936300872F9E2F1E
:100720009C01F90180E090EF02C091938F5F8617E2
:10073000E0F380E0452B09F481E008950F931F93C7
:10074000082F792F2091630030916400862F90E06C
:100750002817390708F4622FA901461B5109509345
:1007600064004093630010917600ADE6B0E0802F06
:10077000972F9C01F9010AC080818C93112319F0F5
:10078000113011F4809588BB319611968E2F801B05
:10079000861790F36093750080E0452B09F481E0A3
:1007A0001F910F910895FC018281809376008181D1
:1007B000893041F48681978190936400809363002F
:1007C0008FEF0895813011F080E008958681978140
:1007D00090936400809363008FEF0895609175009B
:1007E0006623B9F08091820084FF13C0EDE6F0E04B
:1007F000A5E6B0E0262F30E02E0F3F1F02C081910A
:100800008D93E217F307D9F785E690E079DC109233
:100810007500089587B3807E87BB84B38F6384BBE4
:1008200081B38F7181BB88E10FB6F89481BD11BC93
:100830000FBE59DC8F9A84EC99E02CE231E0F9018B
:100840003197F1F70197D9F78F9878948ADCC6DF52
:06085000FDCFF894FFCF7C
:020856005AFF47
:00000001FF
